:020000040000fa
:080000000001040000000000f3
:020000040000fa
:10020000aff1200080ff2000000188000000000006
:10021000050007000c0007009c2d020000000000f4
:100220000040da000000fe004440a9008058200091
:100230000000e0000300320000002000a001880060
:100240004440a80000000600a04d2300010020004b
:100250001600370062004000e080480091018800ed
:100260009001ba0062004000e080480091018800df
:100270009002ba0062004000e08048000002eb00fb
:100280006028e10005003a008301e900070033001f
:10029000038009000059eb00040037006128e100e9
:1002a000010032000082eb00050007009101880088
:1002b0001001ba000200e000e6ff3a00000005006d
:1002c000910188008002780062004000e0804800d0
:1002d0003559ba008301e900080032002559ba00f7
:1002e0008301e900050032000400e000f4ff320061
:1002f00015d9ba008301e900f1ff3a0000000600b9
:10030000040037000204e00001003a00000005008c
:100310000000e80010417800814f5100f9ff3a00d9
:100320000000060080007800010037000000e800af
:100330001004e000fdff3a0001005000000006003c
:100340008001780000017800314078000059780081
:100350000004e000fcff3a00030078000000060003
:100360008001780002003700b15978000201e900ed
:100370000200e000fcff3a00000006000b0037001e
:100380001042780091417800834f520004003200ff
:100390000081eb0007003900120020000500370043
:1003a0000000e8008100e8000201e9000200e0002e
:1003b000f3ff3a000200780000000600811f780079
:1003c0000100e00002003d0060001000e080180025
:1003d0000300e00002003d0060011100e08119000f
:1003e000050007004f00e00002003b006000100025
:1003f000e080180000000600110007000400be00a5
:1004000000000600839f68000100e00002003d003c
:1004100060001000e08018000300e00002003d00d2
:1004200060011100e0811900050007004f00e000a5
:1004300002003b0060001000e08018000000060091
:100440006022b800060220000000d0008180d200a7
:100450000482d2008582d2000000a0000202520075
:1004600083825a00030031000202420083824a0064
:100470000000a1000603e900f3ff3a0000000600b7
:100480000de2a9008d20a9008d40a9008520a900ba
:100490008540a90000000600a210880060108800b6
:1004a000711088000000060017e2a9008f00a90063
:1004b0008f20a9008700a9008720a900000006005e
:1004c000f2108800b0108800c110880000000600fb
:1004d0000ec2bf0061006000000006000cc2bf0039
:1004e00066406000e64f500002003a009010800025
:1004f0000000060090108000f00fb200000006001f
:1005000019c2bf000004a2006100600000000600e4
:100510008000780016c2bf0066406000e64f5000c1
:1005200001003200f10fb200d11088000000060077
:1005300018c2bf00610060000000060016c2bf00c4
:1005400066406000e64f500002003a00e010800074
:1005500000000600e0108000f00fb200000006006e
:100560000fc2bf000004a20061006000000006008e
:10057000800078000cc2bf0066406000e64f50006b
:1005800001003200f10fb200811088000000060067
:10059000000178008100e9000000eb00e18f4000dd
:1005a000070032008041eb00010041000000e8003c
:1005b000b2c16900800f5100fdff3a000380fb00cb
:1005c00000000600c10220004dff07000000e0000f
:1005d000010032000000e80000000600889fbe0015
:1005e0008a1f78000004eb008104e900cac2b3004e
:1005f000890f540006003200904f150007003a00a2
:100600000000e8000804e800890f5400faff3a00ef
:100610004f0578004f04be0000000600c102200014
:1006200037ff07000000e000f9ff32000000e8009b
:100630000804e800f4ff37008000780010419000c3
:10064000c0c2b300804f5100080032001100fb000f
:100650006a00b9000042b0000040410002cdb30082
:10066000024040000080fb000000060000cdb30007
:10067000114040000080fb0000000600fbff370037
:100680009000fb006a09b90004c2b3008440410035
:100690001040900080c0400000cdb30000c040007a
:1006a0000080fb0000000600396ced008720a900e7
:1006b000f0618000b080fb00d1108800f0618800fc
:1006c0008f20a800000006004c2ced008540a900fa
:1006d00000628000b080fb0081108800006288000a
:1006e0008d40a800000006000000e0000b00320072
:1006f0008000eb0042ce2000030020006101510089
:10070000e0815900e10f4100e08f4900fbff3a0012
:100710008100e800810f5000f6ff3a00000006005b
:10072000c9c2bf004300de00e1006000c9c2bf00d3
:100730000048a300010032000114a000e0c2bf0085
:100740000068a30003003200796bef000180fb001a
:100750000000060010c0b30079ebb7000180fb0079
:1007600000000600fbff3700889fbe008004780071
:10077000decbbf0078062000e34f500007003200b8
:1007800038032000e24f500004003200980120009e
:10079000e14f500001003200080120008d40a90007
:1007a0008d20a90036ff070008017800d17d2f00b9
:1007b00000b02c0038ff07000ec2bf000018a300d5
:1007c000010032000e22a900f0f32f000e22b60025
:1007d000366cef000900e000010032008d20a80017
:1007e0004f04be00000006000000fe0000000600ee
:1007f000889fbe008a1f780060eb200071eb20000c
:10080000040009003158780060eb20009080fb0064
:10081000b7cebf004800dd000102700081eb200070
:10082000914078008180fb00b9cebf004800dd0018
:1008300081027000aaeb20001a4578008c60a900a4
:10084000b0628000c16280007262800083628000ba
:100850000200500083805800040440008584480052
:10086000f0bf250061522000800f5400818f5c0092
:100870000400340000402a0091ad2f00080440001d
:1008800089844800b8628800c96288000a04e000d0
:100890000900320042062000030020000800be00cc
:1008a000c6fe070042c6b3000041510002007800b6
:1008b0002becb700376cef00823e200003002000d5
:1008c0000800be00bdfe0700823e2000000151006e
:1008d000526288008c60a8000a04e0000200320026
:1008e000d56bef00d26bef004f0578004f04be00d0
:1008f00000000600889fbe008a1f780060eb200081
:1009000071eb2000040009003158780060eb2000f2
:100910009080fb00b7cebf004800dd0001017000f1
:1009200081eb2000914078008180fb00b9cebf00b0
:100930004800dd0081017000aaeb20001a45780014
:100940008c60a900b0628000c1628000e00f51009d
:10095000e08f5900280035000004410081844900df
:10096000f0bf250061522000800f5400818f5c0091
:100970001c003e00b8628800c96288000a04e000da
:100980000900320042062000030020000800be00db
:1009900099fe070042c6b3000041510002007800f2
:1009a0002becb700376cef00823e200003002000e4
:1009b0000800be0090fe0700823e200000015100aa
:1009c000526288008c60a8000a04e0000200320035
:1009d000d56bef00d26bef004f0578004f04be00df
:1009e0000000060000402a0091ad2f0008044000de
:1009f00089844800dfff370060011100e0811900a1
:100a0000820f5000838f5800030039000204500009
:100a100083845800d7ff37000001510081815900bd
:100a200000c0250061522000020450008384580059
:100a3000d0ff370060eb200071eb200004000900bc
:100a4000315878008c60a900b0628000c1628000db
:100a50008c60a800746280008562800060eb2000da
:100a60009080fb00b7cebf004800dd0001017000a0
:100a700081eb2000914078008180fb00b9cebf005f
:100a80004800dd00810170000202520083825a009a
:100a90000400780064ebb7004820de0065ebb70087
:100aa0000500780066ebb7004828de0067ebb7006a
:100ab0000040eb0068ebb70069ebb70010c0b30073
:100ac000e4ebb7000000060000000000000000009a
:100ad000000000000000060080007800314178002e
:100ae000114878008248780000000600881f7800ce
:100af000e66bef00843e2000b26080000411b80075
:100b0000c06080000480b900830140008c60a900af
:100b1000286cef0028ccbf0029ecb7009062800061
:100b2000a162800000005100818059003300330031
:100b3000b2628000c36280000200400083804800ef
:100b4000b0628800c16288000001be00f0bf2500cd
:100b500061522000800f5100818f59001e003e001d
:100b6000b8bd2000184478000804e0000a003200f4
:100b7000b0628000c16280004206200003002000b5
:100b80001dfe070042c6b30000415100020078007c
:100b90002becb700376cef00b0628000c1628000c0
:100ba000823e20000300200013fe0700823e20004a
:100bb00000015100526288008c60a8000804e00027
:100bc00003003200db6bef00d56bef00d26bef0060
:100bd0004f0478000000060000402a0091ad2f006d
:100be000b2628000c362800002004000838048003f
:100bf000b0628800c1628800d9ff3700600210002f
:100c0000e0821800b0628000c1628000800f520054
:100c1000818f5a0007003e00b0628000c1628000f0
:100c20000400500085805800b0628800c1628800ce
:100c3000cbff3700b2628000c36280000201520025
:100c400083815a0000c0250061522000020050003c
:100c500083805800b0628800c1628800c0ff3700fe
:100c6000889fbe008a1f78003ad72000a10220008a
:100c70000a007800a2fd0700000478000000e000f0
:100c80003e00320080047800805ceb000a007800af
:100c9000a4fd0700e10f5000440036000000e90009
:100ca000e10f40002d0032008a0078000041eb0087
:100cb0000a0040000000e80031416900810f500047
:100cc000fdff3a000280fb004400de006f40600040
:100cd000e94f500009003e000043b0008880e80062
:100ce0008001eb00994f50000900320003007800aa
:100cf0004f0578004f04be00000006007043b000ae
:100d00008880e8008001eb00994f5000f7ff3a001f
:100d10006f406100e94f500016003e000043b000f4
:100d200013002000914f5000f0ff3200103a2b00ca
:100d300061e8200012000900b05878003001b100cd
:100d400010c0b300e2ebb700000020004f057800b0
:100d50004f04be0000000600e8ff37000041eb0032
:100d6000024078006f406000e94f5000daff360023
:100d7000e2ff37007043b000e9ff370010382b0066
:100d800061e820000e000900b0587800f000b100c2
:100d900010c0b300e2ebb700080078004f05780000
:100da0004f04be0000000600d4ff370000392b00be
:100db00061e8200010000900b05878001001b1006f
:100dc00010c0b300e2ebb700000020004f05780030
:100dd0004f04be0000000600c8ff37000042780044
:100de00023bc2000934178000304e000100032008f
:100df0002eccbf000081fb0021d7200004f1780039
:100e00000040e8002eecb7008340e90001007800c4
:100e1000c2ebb7000000eb000d003a008000fd00bf
:100e2000bfebb700c0ebb7008000fd00100005006d
:100e3000c04be20007003a0000c4b300804f5200ec
:100e40001a00320003007800bfebb7000000eb008f
:100e500000000600e1c22000914078000104e0009b
:100e600009003a0050c4b300804f5200180032000d
:100e700063405000804f520015003200010078009e
:100e8000c0ebb70000000500f0c9b300004042000d
:100e9000e14f5000180036008001fd002eecb70035
:100ea000c0ebb7008001fd0000000500bf4be20071
:100eb0000e0032008001fd00bfebb7002eecb70042
:100ec0008001fd0010c0b300c0ebb70000000500ba
:100ed0002eccbf000081fb0021d7200004f1780058
:100ee0000040e8002eecb7000000050010c0b30081
:100ef000bfebb700000005002eccbf000081fb0057
:100f000021d7200004f178000040e8002eecb70063
:100f100050c4b300724de3000500320060c5b30059
:100f2000c2ebb70000c0e800c1ebb700000005004d
:100f30000040e800c2ebb70000c0e800c1ebb7001a
:100f4000000005000040eb007febb70082ebb7002c
:100f500083ebb70038ecb700e0ce2000005c8800df
:100f600000000600a2c520007f4be20001003a000d
:100f700062ce200060ef20000300090030597800a5
:100f80004200b10083cbbf008081fb000300e8007a
:100f900080007800f10fb200414198004800de0067
:100fa0005041980070c6b300604198007a404000fc
:100fb0007041980082cbbf000140680082ebb7000f
:100fc000d24090000140680082ebb700e240900000
:100fd0000140680082ebb700f240900001406800d9
:100fe00082ebb7008300410080489800e2618800ee
:100ff0007f4be2000d0032007f6bef00e0ce20005f
:10100000005c8800836bef00826bef00dacbbf00df
:10101000030032000040e900daebb70002003a00ba
:1010200069c0410038ecb7000000060010c0b300f2
:101030007febb70020c62000005c8800f1ff37007e
:10104000889fbe000004be008f20a9008f00a90069
:1010500015fd0700f20c2000002c2100800f540029
:101060000100320072062000d17d2f0000f02c001c
:1010700013fd070018c2bf000018a30001003200d2
:101080001822a900f0f32f001822b6002c6cef00f4
:101090002cccbf002decb7000900e00001003200ad
:1010a0008f00a8004f04be0000000600809fbe0015
:1010b000616280000100e0000800320000628000f0
:1010c000b080fb0081108800006288004c2ced008d
:1010d0008540a9004f00be0000400600384ce200e9
:1010e00005003a008d40a9008540a9004f00be00d0
:1010f00000400600f9ff370038ccbf000080fb003d
:1011000060628800e0618000006288008000fd006d
:1011100038ecb7008000fd00b080fb008110880033
:10112000006288004c2ced008540a9004f00be00f5
:1011300000400600e9ff3700809fbe00394ce20006
:1011400008003200f0618000b080fb00d110880000
:10115000f0618800396ced008720a9004f00be00c7
:10116000004006008f20a9008720a9004f00be0084
:1011700000400600fbff3700809fbe00829fbe003c
:10118000841f78000ec2bf000018a30001003200c7
:101190000e22a9000ec2bf000008a3000b003200ff
:1011a0000ec2bf000018a300010032000e22a900e9
:1011b0000ec2bf000028a30009003200901080007a
:1011c0000ec2bf000008a300f5ff3a008520a90069
:1011d0004f0278004f01be004f00be0000400600e5
:1011e000931080000341780061c320009140780093
:1011f0000104e0000b003a00e2cf5100e5ff3a00a5
:1012000060eb2000d06188008000fd0031ecb70069
:1012100032ecb7008000fd0010c0b30036ecb70020
:10122000dcff370036ccbf00e14f50001600320023
:1012300036ccbf00e24f5000d6ff3a0035ccbf009d
:10124000e24f5000030036000340780032ccb60075
:1012500032ecb700d061800003587800d06188007c
:10126000356ced0054c32000144278000404e00003
:10127000c8ff3a00e34f5100360032000400780006
:1012800036ecb700c3ff37000340780032ccb6001d
:1012900032ecb700d061800003587800d06188003c
:1012a00030c4b30080cf51001c00320040c5b300f1
:1012b00080cf51000e0032007040500080cf5100ae
:1012c0000b00320040c6b30080cf51001a0032003c
:1012d00020c0b30035ecb700801f780035ccbf00cc
:1012e00034ecb7004f00780036ecb700a9ff3700a8
:1012f00070c0b30035ecb70035ccbf0034ecb7009c
:1013000020c0b30036ecb700b0628000c16280003c
:1013100070628800816288009eff370000c1b300c0
:1013200035ecb70035ccbf0034ecb70020c0b300bb
:1013300036ecb70097ff370070c0b30035ecb7004c
:1013400035ccbf0034ecb70020c0b30036ecb7009a
:1013500090ff370034ccbf0022c320001241780038
:101360000080fb0051eb200001004000904f110075
:10137000050032000400780036ecb70010c0b3005e
:101380002fecb70083ff37000300780036ecb7007e
:1013900010c0b30030ecb700040078002fecb700a9
:1013a0007cff3700809fbe00829fbe0018c2bf0036
:1013b0000018a300010032001822a90018c2bf00c3
:1013c0000008a3000b00320018c2bf000018a300e1
:1013d000010032001822a90018c2bf00e4416000d9
:1013e00008003200e010800018c2bf000008a3000f
:1013f000f5ff3a008700a9004f01be004f00be0074
:10140000004006002dccbf000080fb00e2108000f1
:1014100061ed200002f078002d6cec002dccbf00b7
:10142000ff4f5000e5ff3600030078002decb700b9
:10143000e2ff3700334ce200070032004a2ced0097
:101440004a0ce2001a00320051628000301f200076
:10145000808f50001a0036002b6ced002b4ce20000
:1014600004003a002accbf002becb70010c0b30038
:1014700037ecb700b0628000c162800061004000bc
:10148000e0804800b0628800c16288000001be00b0
:10149000f0bf250061522000800f5100818f59005c
:1014a00002003600562cef00582cef00000006001a
:1014b000803e200050628800e202a800e6ff37006c
:1014c000e202a900e4ff3700889fbe008a9fbe00a9
:1014d0008c9fbe00cf4be200130032009c5f800067
:1014e000ad5f80004a5f80008044eb006bbf20004e
:1014f0000984fb004244dd000b0444000c01be00e3
:101500001800be00bffb0700001d7800000ceb00b8
:10151000381478008944e800cfcbbf00004ce100cc
:10152000f3ff3a004a5f88004f06be004f05be0039
:101530004f04be0000000600e54be2005f003200f1
:1015400080802000505f8800e0812000405f88009c
:101550008c60a900b0628000c1628000535f80008f
:10156000c04198004801de00d2419800e141980056
:101570004808de00f041980090628000a16280007f
:10158000535f8000804998004801de00924998002e
:10159000a14998004808de00b04998008c60a80076
:1015a000505f800051bc200091407800315098007d
:1015b000505f800041bc200091407800415098006d
:1015c000505f800031bc200091407800515098005d
:1015d000505f800061c12000914078004148980030
:1015e00071c12000914078005148980081c12000cd
:1015f000914078006148980091c1200091407800a6
:1016000071489800505f800071bc200091407800c4
:1016100021509800505f8000b1b7200091407800c1
:1016200011509800505f800061bd2000914078000b
:1016300001509800505f8000a1c1200091407800c7
:1016400001487800b1c12000914078001140980015
:10165000c1c120009140780021409800d1c12000f4
:10166000914078003140980040bd200011c0b30087
:1016700090cf100010003600f62bef00f82bef0093
:10168000fa2bef00fc2bef00fe2bef00002cef00fd
:10169000022cef00042cef00062cef00082cef00ca
:1016a0000a2cef000c2cef000e2cef00102cef009a
:1016b000122cef00142cef0000000600809b20008d
:1016c000505f8800e09c2000405f8800a0ff37004a
:1016d0008d20a9008d40a9004201200040ce2000ad
:1016e0000100200061005000e0805800e10f400040
:1016f000e08f4800fbff3a000201e900f7ff3a00e3
:10170000d0002000801088004206200040ce20003b
:101710000100200061005000e0805800e10f40000f
:10172000e08f4800fbff3a000201e900f7ff3a00b2
:101730000ec2bf000018a300010032000e22a90053
:101740000ec2bf000008a30002003200901080000b
:10175000fbff3700a0052000801088004206200013
:1017600040ce20000100200061005000e0805800c1
:10177000e10f4000e08f4800fbff3a000201e90062
:10178000f7ff3a000ec2bf000008a30004003200b9
:1017900091108000a0c5b30080cf50000900320036
:1017a0008000eb000ec2bf000018a3000100320051
:1017b0000e22a9008d20a8008d40a800010078000d
:1017c00000000600d00020008010880042062000a3
:1017d00040ce20000100200061005000e080580051
:1017e000e10f4000e08f4800fbff3a000201e900f2
:1017f000f7ff3a00100420008010880040ce20003f
:101800000100200061005000e0805800e10f40001e
:10181000e08f4800fbff3a000201e800f40f51009e
:10182000f6ff3a00400520008010880040ce2000de
:101830000100200061005000e0805800e10f4000ee
:10184000e08f4800fbff3a000201e900f7ff3a0091
:1018500010042000801088004201200040ce2000ab
:101860000100200061005000e0805800e10f4000be
:10187000e08f4800fbff3a000201e900f7ff3a0061
:10188000d0002000801088004201200040ce2000bf
:101890000100200061005000e0805800e10f40008e
:1018a000e08f4800fbff3a000201e900f7ff3a0031
:1018b00011002000bbff3700b0b82000413b2b00d7
:1018c000b2b820000e00090031597800f100b100d3
:1018d000f061880093fa070039ecb700396ced002d
:1018e0008720a9008bcbbf000080fb00d0108800b0
:1018f000c0b82000f06188008f20a800000006001a
:1019000000c4b3008bebb7008cebb7006340400022
:101910008debb70090c6b3008eebb70010c0b300dc
:101920008febb700d0b820008040eb0002b9200058
:10193000b0c06800800f5100fdff3a000100780040
:1019400090ebb700d0c0b30091ebb700a0c0b300dc
:1019500092ebb70080c0b30039ecb700396ced00f2
:101960008720a9008bcbbf000080fb00d01088002f
:10197000c0b82000f06188008f20a8000000060099
:1019800000c4b3008bebb7008cebb70063404000a2
:101990008debb70060c6b3008eebb700d0b8200067
:1019a0008040eb00f2b82000b0c06800800f51000a
:1019b000fdff3a00010078008febb700d0c0b30004
:1019c00090ebb700a0c0b30091ebb70070c0b300bc
:1019d00039ecb700396ced008720a9008bcbbf0034
:1019e0000080fb00d0108800c0b82000f0618800a3
:1019f0008f20a800000006000141780001c4b30058
:101a00008000fd008bebb7008cebb7008000fd0081
:101a10008debb70081c0e800814f50001b00320001
:101a200010c6b3008eebb700020078008febb70052
:101a3000d0b820008040eb0002b92000b0c06800a0
:101a4000800f5100fdff3a000100780090ebb700d5
:101a5000d0c0b30091ebb700a0c0b30092ebb700c9
:101a600080c0b30039ecb700396ced008720a900c5
:101a70008bcbbf000080fb00d0108800c0b82000d6
:101a8000f06188008f20a8000000060020c6b30087
:101a90008eebb700020078008febb700d0b82000c3
:101aa0008040eb0002b92000e4ff3700804078005e
:101ab000303c2b00b2b820000700090030597800f4
:101ac0008000b100e3cf5000310032001800360032
:101ad000e5cf50006f00320042003100303e2b0055
:101ae00021b9200005000900b05878006000b1005d
:101af000d0c0b30097ebb700a0c0b30098ebb7001d
:101b0000996bef00e0c0b30039ecb700396ced0021
:101b10008720a9008bcbbf000080fb00d01088007d
:101b2000c0b82000f06188008f20a80000000600e7
:101b3000e1cf50006c00320041003600703d2b00b8
:101b400021b9200005000900b05878006000b100fc
:101b5000d0c0b30097ebb700a0c0b30098ebb700bc
:101b6000996bef00e0c0b30039ecb700396ced00c1
:101b70008720a9008bcbbf000080fb00d01088001d
:101b8000c0b82000f06188008f20a800e7ff370070
:101b9000d03d2b0022b92000050009003059780003
:101ba0006000b100d0c0b30097ebb700a0c0b30095
:101bb00098ebb700996bef00e0c0b30039ecb700c9
:101bc000396ced008720a9008bcbbf000080fb00a3
:101bd000d0108800c0b82000f06188008f20a800d5
:101be000d2ff3700e6cf5000d0ff3a00f03e2b0086
:101bf00021b9200005000900b05878006000b1004c
:101c0000d0c0b30097ebb700a0c0b30098ebb7000b
:101c1000996bef00e0c0b30039ecb700396ced0010
:101c20008720a9008bcbbf000080fb00d01088006c
:101c3000c0b82000f06188008f20a800bbff3700eb
:101c4000b03c2b0021b9200005000900b0587800f5
:101c50006000b100d0c0b30097ebb700a0c0b300e4
:101c600098ebb700996bef00e0c0b30039ecb70018
:101c7000396ced008720a9008bcbbf000080fb00f2
:101c8000d0108800c0b82000f06188008f20a80024
:101c9000a6ff3700903e2b0022b920000500090066
:101ca000305978006000b100d0c0b30097ebb700a6
:101cb000a0c0b30098ebb700996bef00e0c0b30091
:101cc00039ecb700396ced008720a9008bcbbf0041
:101cd0000080fb00d0108800c0b82000f0618800b0
:101ce0008f20a80091ff3700103d2b0022b9200063
:101cf00005000900305978006000b100d0c0b30081
:101d000097ebb700a0c0b30098ebb700996bef005a
:101d1000e0c0b30039ecb700396ced008720a900b2
:101d20008bcbbf000080fb00d0108800c0b8200023
:101d3000f06188008f20a8007cff37008a4be2000a
:101d40001d003a00864be2001b003a0091b82000cb
:101d5000914078000140e900e64f50000c003e0041
:101d6000e1cf50001500320085cbbf008040e80075
:101d70008000fd0085ebb7008000fd004bff0700f1
:101d8000896bec0040c0b30086ebb7000000060092
:101d9000a0c0b300c6ebb700896bef007c6bef000f
:101da0007f6bef00826bef00836bef00386cef000e
:101db000e0ce2000005c880000000600856bef008c
:101dc00085cbbf008040e8008000fd0085ebb700b8
:101dd0008000fd0035ff0700896bec0040c0b300b8
:101de00086ebb7000000060080407800303c2b00f6
:101df000b2b8200007000900305978008000b10017
:101e0000e1cf50002d00320015003100103d2b00b5
:101e100021b9200005000900b05878006000b10029
:101e2000d0c0b30097ebb700a0c0b30098ebb700e9
:101e3000996bef00e0c0b30039ecb700396ced00ee
:101e40008720a9008bcbbf000080fb00d01088004a
:101e5000c0b82000f06188008f20a80000000600b4
:101e6000e2cf5000fdff3a00b03f2b0021b9200027
:101e700005000900b05878006000b100d0c0b30080
:101e800097ebb700a0c0b30098ebb700996bef00d9
:101e9000e0c0b30039ecb700396ced008720a90031
:101ea0008bcbbf000080fb00d0108800c0b82000a2
:101eb000f06188008f20a800e8ff3700503f2b001a
:101ec00022b9200005000900305978006000b100f7
:101ed000d0c0b30097ebb700a0c0b30098ebb70039
:101ee000996bef00e0c0b30039ecb700396ced003e
:101ef0008720a9008bcbbf000080fb00d01088009a
:101f0000c0b82000f06188008f20a800d3ff370000
:101f10008a4be2001c003a00864be2001a003a00ad
:101f200091b82000914078000140e900e24f500054
:101f30000c003e00e1cf50001400320085cbbf0002
:101f40008040e8008000fd0085ebb7008000fd00c8
:101f5000a5ff0700896bec0040c0b30086ebb7001b
:101f600000000600a0c0b300c6ebb700896bef000d
:101f70007f6bef00826bef00836bef00386cef003c
:101f8000e0ce2000005c880000000600856bef00ba
:101f900085cbbf008040e8008000fd0085ebb700e6
:101fa0008000fd0090ff0700896bec0040c0b3008b
:101fb00086ebb70000000600881f7800e1bc200017
:101fc0009140780067c05000e14f50005200360049
:101fd000e6cf50006d0032007d4be20047003a0032
:101fe000a1b62000914078008180fb006bcbbf0040
:101ff0004800dd00010070000048a3006e003a00b8
:102000000038a3007800320085cbbf000080fb00c1
:1020100000004000a1df2000e08078000100e00027
:102020003d003200b8b8200008007800c4f807006e
:1020300008007800bbf807008002e9008081e90011
:10204000e18f410059003200c6b8200086007800b8
:102050000041eb00d0b82000008041003141690010
:10206000810f5000fdff3a008281fb000681420093
:1020700082007800a0c2b300805878000342780044
:102080004418de00e94f50003c00360073c3b30033
:10209000834840000280e800ef406200e9cf500032
:1020a0002100360072c3b30002d84000000178005e
:1020b00002007800d1c0b30001587800a1c0b3007d
:1020c000014878000280e8000048eb0066c042004a
:1020d00039ecb700396ced008720a9008bcbbf002d
:1020e0000080fb00d0108800f66188008f20a800d7
:1020f000100020004f0478000000060085cbbf00d0
:102100000080fb000000400061e32000e0807800d8
:102110000100e000c3ff3a000000eb004f0478002c
:1021200000000600f5ff370003c3b30003d84000ea
:102130000001780002007800d1c0b3000158780097
:10214000a1c0b300014878000280e8000048eb001d
:1021500066c0420039ecb700396ced008720a90059
:102160008bcbbf000080fb00d0108800f661880098
:102170008f20a80010002000deff370003c3b3004b
:10218000834840000280e800c3ff37007d4be20037
:102190000f003a0085cbbf000080fb00000040002c
:1021a00021df2000e08078009cff37008001eb00f9
:1021b000c6b82000adff370085cbbf000080fb0014
:1021c0000000400021e22000e080780093ff37000b
:1021d00085cbbf000080fb0000004000a1de200096
:1021e000e08078008dff370085cbbf000080fb00ca
:1021f00000004000e1e02000e080780087ff370029
:10220000394ce2001f003a00864be2001d003a0004
:10221000e0bc200061c0b30090cf10002400320069
:1022200090b8200011c0b30090cf1000160032000b
:1022300061ff0700804078000004e0000d003a00d4
:102240007debb70050c0b300c6ebb7008000fd00c7
:1022500089ebb7007febb70082ebb70083ebb700e9
:1022600038ecb7008000fd00e0ce2000005c880064
:1022700000000600856bec00896bec00e0c1b30048
:1022800086ebb70000000600856bef007d4be20097
:1022900018003a00844be2001c003a0010c0b30062
:1022a00085ebb70020c0b30089ebb7000000060043
:1022b00011628000004b2000808f50001c003e0007
:1022c000a0b72000a1c0b30090cf1000edff3a00ee
:1022d0001162800010032000808f5000e9ff36005b
:1022e00090b8200011c0b30090cf1000d0ff3a008a
:1022f000e5ff370030ff070010c0b30085ebb700e3
:1023000020c0b30089ebb70000000600846bef002b
:1023100029ff0700e0c1b30086ebb70010c0b3008f
:1023200085ebb70020c0b30089ebb70000000600c2
:10233000422cef0010402b0061e820000e00090045
:10234000b0587800f000b10010c0b300e2ebb70065
:1023500090b8200011c0b30090cf1000b4ff3a0035
:10236000c9ff3700889fbe008a1f7800b0778000c1
:10237000c1778000307288004172880068e82000d0
:1023800008007800e7f707000040e8008084fb00c1
:102390000900e8004aeeb7004800de004beeb70047
:1023a000c0c4b3004ceeb70010c8b3004deeb70088
:1023b000eae4200009017800880078000a0078002b
:1023c000e7f70700e38144000000eb00e18f4100e4
:1023d00008003200a1e420000041eb00b0e420003e
:1023e0000080410031416900810f5000fdff3a003b
:1023f0000280fb0080747d00698044006062880078
:102400004c2ced008540a90046cebf000080fb00ab
:102410008010880070e42000006288008d40a800d1
:10242000e26bef004f0578004f04be00000006008d
:10243000800078004c0ce200feff3a0060e82000cb
:10244000bff70700c7ff07004206200040ce20006c
:102450000100200061005000e0805800e10f4000c2
:10246000e08f4800fbff3a000201e900f7ff3a0065
:1024700000000600b0778000c177800030728800cd
:102480004172880060c0b3004aeeb7004b6eef00a7
:1024900030c4b3004ceeb70010c8b3004deeb70027
:1024a0004e6eef004f6eef00506eef00516eef007a
:1024b00080c0b30052eeb700794be2000200320058
:1024c00080c8b30052eeb700a0e420008040eb00cb
:1024d00032e52000b0c06800800f5100fdff3a00d7
:1024e0000100780053eeb700e00020006062880031
:1024f0004c2ced008540a90046cebf000080fb00bb
:102500008010880070e42000006288008d40a800e0
:1025100000000600e06bef0040c0b3004eeeb700d5
:1025200020c0b3004feeb70060c0b30050eeb7005c
:10253000cfcbbf0051eeb700605f800052eeb70016
:102540004800de0053eeb700b0778000c17780000e
:10255000307288004172880070c0b3004aeeb70044
:102560004b6eef0030c5b3004ceeb70010c8b3009f
:102570004deeb700a0e420008040eb0042e52000d3
:10258000b0c06800800f5100fdff3a0001007800e4
:1025900054eeb700f0002000606288004c2ced0083
:1025a0008540a90046cebf000080fb008010880057
:1025b00070e42000006288008d40a8000000060042
:1025c000e46bef00b0778000c17780003072880044
:1025d0004172880070c0b3004aeeb7004b6eef0046
:1025e00070c7b3004ceeb7006a4040004deeb70034
:1025f000e1e4200040b6200005000900b058780052
:10260000a0e420008040eb0042e52000b0c068005c
:10261000800f5100fdff3a000100780054eeb70032
:10262000f0002000606288004c2ced008540a9007d
:1026300046cebf000080fb008010880070e42000c0
:10264000006288008d40a80000000600d96bef00f2
:10265000b0778000c17780003072880041728800b6
:1026600020c0b3004aeeb7004b6eef0010c6b300b7
:102670004ceeb70010c8b3004deeb70060c0b30019
:102680004eeeb700a0e420008040eb00f2e4200012
:10269000b0c06800800f5100fdff3a0001007800d3
:1026a0004feeb700a0002000606288004c2ced00c7
:1026b0008540a90046cebf000080fb008010880046
:1026c00070e42000006288008d40a8000000060031
:1026d000735f8000626280000200e000fdff3a004c
:1026e000e54be2002b003200b0778000c17780001c
:1026f00000408800114088007780410004e8b7005e
:102700004800de0005e8b70040c4b30006e8b700a3
:1027100010c8b30007e8b70079824100e10f42001a
:10272000490032004180200050802000000042001b
:1027300031416900810f5000fdff3a008280fb00ab
:10274000e081200081717800008020000062880014
:10275000e56bef007f804100606288004c2ced004b
:102760008540a90000628000b080fb0081108800d5
:10277000006288008d40a800d0608000e160800089
:1027800061004000e0804800d0608800e16088007f
:1027900000000600b0778000c1778000804d88007f
:1027a000914d880077804100b4e9b7004800de0011
:1027b000b5e9b70040c4b300b6e9b70010c8b3002c
:1027c000b7e9b70079824100e10f420025003200ed
:1027d000419b2000509b20000000420031416900d5
:1027e000810f5000fdff3a008280fb00e09c20003a
:1027f00081717800009b20000062880010c0b30047
:10280000e5ebb7007f804100606288004c2ced0052
:102810008540a90000628000b080fb008110880024
:10282000006288008d40a800d0608000e1608000d8
:1028300061004000e0804800d0608800e1608800ce
:1028400000000600d3ff370082007800e0812000fe
:10285000817178000080200000628800e56bef0045
:10286000bcff370082007800e09c20008171780076
:10287000009b20000062880010c0b300e5ebb700a9
:10288000e0ff3700cb02a800ff3ffc00d662a900a2
:102890000000000000000000d662a8005220ef00f7
:1028a000000000000000000000000000c3c2bf00e4
:1028b0000038a300fdff320000000000000000000f
:1028c0000000000040168000f00fb200cb02a9000b
:1028d000000000004800dd00411680008180fb0000
:1028e0000100700000000600889fbe008a9fbe00a5
:1028f0008a5f8000495f8000f8bc2000184478009f
:1029000080c5eb000844e9008b4f54003d003200c5
:1029100073bd2000934178008342e9006033b80022
:10292000e1cf42001f00320005427800cb02a80030
:10293000ff3ffc00d662a90000000000000000007c
:10294000d662a8005220ef00000000000000000046
:1029500000000000c3c2bf000038a300fdff32002a
:102960000000000000000000000000004016800091
:10297000f00fb200cb02a900000000004800dd000b
:10298000421680000281fb0002007000cf80de0052
:1029900006034000878348000442e900e14f4200fb
:1029a000e2ff3a00d04bec00d0ebb7000080fb0018
:1029b0000a007000b016880032bd20001241780075
:1029c0000204e00016003200e00f5300e08f5b00cd
:1029d000190035000280fb00000178000201e900c7
:1029e000030033008783d1000683d300fbff370049
:1029f0000600be00801c78000844e9008b4f54009c
:102a0000c3ff3a00495f8800d06bef00ba16880018
:102a10000060fe004f05be004f04be00000006002f
:102a20000381fb00030020000600be0075f60700ce
:102a3000801c7800f0ff370060001300e0801b006e
:102a40000281fb000201e900030033008180d10014
:102a50000080d300fbff370060001000e08018000a
:102a6000801c7800e4ff3700889fbe008a9fbe006c
:102a7000fabc20001a4578000a04e0003d0032004c
:102a8000d74bed0080447800885f8000d04bec008d
:102a9000004378008043eb006bbf20006022b80049
:102aa000e1cf44001f00320089417800cb02a8002a
:102ab000ff3ffc00d662a9000000000000000000fb
:102ac000d662a8005220ef000000000000000000c5
:102ad00000000000c3c2bf000038a300fdff3200a9
:102ae0000000000000000000000000004016800010
:102af000f00fb200cb02a900000000004800dd008a
:102b0000421680000281fb0002007000cf80de00d0
:102b100004024000858248008341e900e1cf410082
:102b2000e2ff3a000680fb0008007000b016880043
:102b30000780fb004200dd000b004000100842004f
:102b400050904a008743e8000643e8008acf5300cc
:102b5000d2ff3a000640e900d0ebb700d06bef009f
:102b6000b81688000060fe004f05be004f04be008e
:102b700000000600885f8000d06bef00b816880068
:102b80000060fe004f05be004f04be0000000600be
:102b9000f8ff3700809fbe00829fbe00294ce200f4
:102ba00012003200334ce20081003a002b6ced0041
:102bb0002b4ce2006d003200b0628000c1628000e8
:102bc00061004000e0804800b0628800c162880077
:102bd0000001be00f0bf250061522000800f5100af
:102be000818f59005d003e00296cef00284ce20007
:102bf00028003a00334ce2004c003a002b6ced0008
:102c00002b4ce20037003200b2628000c3628000c9
:102c100061014100e0814900b2628800c36288001e
:102c2000b2628000c3628000f0bf250061522000c4
:102c3000800f5100818f590027003e00274ce20091
:102c400010003200244ce20014003a00254ce2004f
:102c50006a003200d5c2bf006140600067003a00e0
:102c6000b2628000c362800092628800a362880022
:102c700025ecb7002eecb70010c0b3001fecb70076
:102c8000422cec008460a9004f01be004f00be0042
:102c900000400600286cef00e8ff3700254ce200fa
:102ca0004f003200d5c2bf000008a3004c00320024
:102cb000b0628000c162800090628800a1628800da
:102cc000256cef002e6cef0010c0b3001fecb700b6
:102cd000422cec00ebff3700562cef00582cef0095
:102ce000d6ff37002accbf002becb70010c0b300d2
:102cf00037ecb700b2628000c3628000610141001e
:102d0000e0814900b2628800c3628800b26280003c
:102d1000c3628000f0bf250061522000800f510087
:102d2000818f5900c5ff3600ebff37004a2ced00bc
:102d30004a0ce2003d00320051628000301f20004a
:102d4000808f5000adff3e00e202a9002b6ced0029
:102d50002b4ce200acff3a00e2ff3700562cef00ac
:102d6000582cef00296cef00a0ff37002accbf00e1
:102d70002becb70010c0b30037ecb700b062800096
:102d8000c162800061004000e0804800b0628800bd
:102d9000c16288000001be00f0bf25006152200022
:102da000800f5100818f59008fff3600ebff3700f5
:102db0004a2ced004a0ce2001500320051628000fe
:102dc000301f2000808f500078ff3e00e202a900f3
:102dd0002b6ced002b4ce20077ff3a00e3ff37004d
:102de000d5c2bf000008a300a5ff3a0010c0b30081
:102df00025ecb700422cec00a2ff3700d5c2bf0083
:102e00000008a300f9ff3a00422cec009dff3700b8
:102e1000803e200050628800e202a8002b6ced008a
:102e20002b4ce20064ff3a00d0ff3700803e2000c8
:102e300050628800e202a8002b6ced002b4ce200ef
:102e400071ff3a00a7ff3700889fbe006200200094
:102e500001412b0030d7200048f507000000e000ba
:102e600024003a0022d7200078002000c9c2b30015
:102e70000804e9000500320092cf140016003a0061
:102e80000201e8000804e900fbff3a000200e0004c
:102e9000220032001240780087ebb7008280e80001
:102ea00032419000c0c2b300804f51005d0032003b
:102eb0001100fb006a00b9000042b0000040410070
:102ec00002cdb30002404000c7ebb7001000200065
:102ed0004f04be0000000600c1022000020078007e
:102ee00007f507000000e0000c0032000001e800d8
:102ef000dfff37006200200071412b0030d7200037
:102f00001ef507000000e00008003200cecbbf0035
:102f100067405000e14f5000060036000000eb0013
:102f20004f04be0000000600ebff37001f4ce2001c
:102f300004003a00100020004f04be00000006000c
:102f4000e5ff37001fecb70090d720001001fb0011
:102f50006a11b900a1d72000114141007041510010
:102f60000001fd00cdebb7000001fd00b2d720004d
:102f7000124178000201fb006a11b900c1d720009c
:102f800011414100704151000001fd00ccebb70040
:102f90000001fd00d2d72000124178000201fb00a1
:102fa0006a11b900e1d72000114141007041510080
:102fb0000001fd00cbebb7000001fd00c1022000c5
:102fc000cff407000000e000d4ff32000000e8006a
:102fd000d2ff32009040780010c4b30080cf500080
:102fe0001500320060c5b30080cf5000d1ff3a0019
:102ff00000c3b3007bebb70030c0b30060ebb70099
:1030000024d72000a8002000c9c2b3000804e900aa
:103010001a00320094cf140011003a000402e800b4
:10302000faff370000cdb30011404000c7ebb700f6
:1030300010002000a6ff370060cbbf003d0032002b
:103040000040e90060ebb70000c3b3007bebb700c2
:1030500024d72000a8002000c9c2b300ebff37002e
:10306000c102200004007800a5f407000000e00081
:10307000250032000002e800e4ff37000400e00011
:103080002100320094407800c0c2b30080cf5000cd
:10309000310032000100fb006a00b9000042b000bc
:1030a000144190000240400003cdb30003404000b3
:1030b000c4ebb700244090000000fb006a00b90098
:1030c0000042b00034419000024040000340400004
:1030d000c5ebb700444090000000fb006a00b90057
:1030e0000042b000544190000240400003404000c4
:1030f000c3ebb700886bef00100020004f04be0048
:103100000000060074ff3700e0412b0061e820005a
:1031100017000900b05878008001b10010c0b3005a
:10312000e2ebb7000000eb004f04be000000060019
:1031300069ff370020c3b300874be3000100320072
:1031400010c3b3007bebb70024d72000a8002000f9
:10315000c9c2b300adff37000004fd00c3ebb700e8
:10316000c5ebb700c4ebb7000004fd00886bef00af
:1031700010002000e1ff370086cbbf0004003200c2
:103180000040e90086ebb70001003a00622bef0037
:10319000274ce2000e003200115b80008100e80045
:1031a000115b880030382000808f50000800340008
:1031b000622bef0060432b0061e820000b00090048
:1031c000b0587800c000b10010c0b300e2ebb70007
:1031d000364ce2000f00320036ccbf00e34f500007
:1031e0000c003200316cec0031ccbf00ee4f5000cf
:1031f00008003600366cef0020442b0061e8200008
:1032000012000900b05878003001b10010c0b300be
:10321000e2ebb7001e4ce2001a003200442cec0036
:1032200021628000f04a2000808f50001500360097
:1032300010c0b30078ebb700e1ebb7004c0ce20034
:10324000feff3a0050452b0061e820000d00090008
:10325000b0587800e000b10042fc070042062000b0
:1032600040ce20000100200061005000e0805800a6
:10327000e10f4000e08f4800fbff3a000201e90047
:10328000f7ff3a00000006008a4be20010003a0007
:10329000864be2000e003a0090b8200011c0b30047
:1032a00090cf10000b003200a0c0b300c6ebb700f7
:1032b000896bef007d6bef007f6bef00826bef009f
:1032c000836bef00386cef00e0ce2000005c8800dc
:1032d0000000060000c4b3008bebb7008cebb70016
:1032e00000c0e8008debb70020c6b3008eebb7003e
:1032f000010078008febb700d0b820008040eb00d1
:1033000002b92000b0c06800800f5100fdff3a00f4
:103310000100780090ebb700d0c0b30091ebb7008c
:10332000a0c0b30092ebb70080c0b30039ecb70087
:10333000396ced008720a9008bcbbf000080fb001b
:10334000d0108800c0b82000f06188008f20a8004d
:1033500020c0b30089ebb700000006008a4be200f2
:1033600011003a00864be2000f003a0090b82000ae
:1033700011c0b30090cf10000c003200a0c0b30009
:10338000c6ebb700896bef007d6bef007c6bef0045
:103390007f6bef00826bef00836bef00386cef0008
:1033a000e0ce2000005c88000000060000c4b300ee
:1033b0008bebb7008cebb70000c0e8008debb700db
:1033c00020c6b3008eebb7008f6bef00d0b82000a3
:1033d0008040eb0002b92000b0c06800800f5100af
:1033e000fdff3a000100780090ebb700d0c0b300b9
:1033f00091ebb700a0c0b30092ebb70080c0b30060
:1034000039ecb700396ced008720a9008bcbbf00e9
:103410000080fb00d0108800c0b82000f061880058
:103420008f20a80020c0b30089ebb7000000060081
:1034300016c0b30025d72000d1c2200091407800eb
:103440002cccbf0080cf5000630032008f00a90059
:103450002cccbf000080fb0061ed200060c1780033
:103460002c6cec002cccbf00ff4f5000010036004c
:103470002c6cef008f00a800020078007aebb700f8
:10348000422cef007e4be2003f003200894be2000d
:103490003d003a00834bec008040780083ebb7009e
:1034a000e0c7b30080cf500031003600384ce20056
:1034b000de003a00a3c520007f4be2007800320016
:1034c00060ef200003000900b05978004300b1000c
:1034d00083cbbf000082fb000400e800800078007e
:1034e000f10fb200c14198004800de00d0419800c1
:1034f00070c6b300e04198007a404000f041980067
:1035000082cbbf000140680082ebb700d34090003f
:103510000140680082ebb700e34090000140680082
:1035200082ebb700f34090000140680082ebb700e7
:103530008480410080489800e36188007f4be2006e
:1035400079003a00060078007febb70020c6200023
:10355000005c8800836bef00826bef00dacbbf006a
:10356000780032000040e900daebb7007500320065
:10357000005c800002587800005c880002407800ff
:1035800082cbb60082ebb700e0bc200021c0b300c4
:1035900090cf100011003200ed4f5100a6ff320015
:1035a0002e4ce2001c003a0040c2b300804f510094
:1035b000a1ff3a00060078002eecb7000200780068
:1035c00072edb700d1c22000914078002cccbf0032
:1035d00080cf50009dff3a000000050023bc200072
:1035e000934178000304e000180032002eccbf00a5
:1035f0008080fb0082f07a000040e8002eecb700eb
:103600000340e900c2ebb7008bff3a00bfebb70005
:10361000c0ebb70010000500e1c220009140780027
:1036200060c7b30080cf500077003e00ea4f5100e2
:103630006f0032002eccbf008080fb0082f07a0049
:103640000040e8002eecb7007bff3700c04be200e3
:1036500006003a0000c4b300804f51004b00320016
:1036600003007800bfebb70073ff3700e1c2200012
:10367000914078000104e0003b003a0050c4b300e0
:10368000804f5100ebff320063405000804f5100eb
:10369000e8ff320001007800c0ebb70066ff37009a
:1036a00063ce200060ef200003000900b0597800cd
:1036b0004300b10083cbbf000082fb000400e800a0
:1036c00080007800f10fb200c14198004800de0090
:1036d000d041980070c6b300e04198007a404000a5
:1036e000f041980082cbbf000140680082ebb70038
:1036f000d34090000140680082ebb700e3409000a7
:103700000140680082ebb700f34090000140680080
:1037100082ebb7008480410080489800e361880014
:103720007f4be20087ff32007f6bef00e0ce20008e
:10373000005c8800836bef00826bef00dacbbf0088
:1037400088ff3a006940420038ecb700005c800016
:1037500002587800005c88000240780082cbb600f6
:1037600082ebb70088ff3700f0c9b300004041008a
:10377000e14f5000110036008001fd002eecb70033
:10378000c0ebb7008001fd002bff3700bf4be2000c
:1037900003003a0006007800bfebb70026ff3700b1
:1037a0008001fd00bfebb7002eecb7008001fd00eb
:1037b00006007800c0ebb7001fff37002eccbf001b
:1037c0008080fb0082f07a000040e8002eecb70019
:1037d00050c4b300724de3002200320060c5b30054
:1037e000c2ebb70000c0e800c1ebb70012ff370022
:1037f0002eccbf000080fb00050040000048eb001d
:103800002e6cef00100005002e6cef00b0472b006f
:1038100061e8200018000900b05878009001b1005c
:1038200006007800e2ebb700000005007f6bef00b8
:10383000826bef00836bef00386cef00e0ce20006e
:10384000005c880030462b0061e82000170009006a
:10385000b05878008001b10006007800e2ebb700b4
:10386000000005000040e800c2ebb70000c0e8001f
:10387000c1ebb700f0fe3700881f7800894be200eb
:1038800006003a0068bc2000184478000804e000f4
:10389000040032000840e900c6ebb7004f0478008e
:1038a00000000600eef407000004e000fbff320019
:1038b000622bef0064fd0700804078000004e00008
:1038c0005e003200d2bc2000124178000281fb0071
:1038d0000300200000e120000011b800cccbbf00a5
:1038e0000080fb0001002000c40320000400b80099
:1038f0000201400083814800cbcbbf000080fb0069
:10390000010020000203400083834800b660880065
:10391000c7608800e64be200e0ff32009062800062
:10392000a1628000e00f5000e08f5800dbff320002
:1039300008007800e6ebb7008c60a900080078006a
:1039400028ecb70028ccbf0029ecb70090628000bb
:10395000a1628000823e20000232b80002b9b900a4
:10396000850241000000520081805a004800330067
:10397000b2628000c3628000020040008380480081
:10398000b0628800c16288000001be00f0bf25005f
:1039900061522000800f5100818f590008003600cd
:1039a00000402a0091ad2f00b2628000c362800007
:1039b0000200400083804800b0628800c162880035
:1039c000b8bd2000184478000804e0000a00320066
:1039d000b0628000c1628000420620000300200027
:1039e00085f2070042c6b300004151000200780092
:1039f0002becb700376cef00b0628000c162800032
:103a0000823e2000030020007bf20700823e20005f
:103a100000015100526288008c60a8000804e00098
:103a20009eff3200db6bef00d56bef00d26bef0037
:103a30004f047800000006009aff37007e4be2003a
:103a400096ff3a00884bec0088ebb700e24f50003d
:103a500092ff36000100780088ebb70011c0b30078
:103a60000100780089ebb70040492b0062e8200094
:103a70000f000900305978000001b1000100780002
:103a8000e2ebb7004f0478000000060085ff370026
:103a900060021000e0821800b0628000c162800005
:103aa000800f5200818f5a000b003600b2628000f6
:103ab000c36280000201520083815a0000c02500c9
:103ac000615220000200500083805800b0628800dc
:103ad000c1628800baff3700b0628000c162800016
:103ae0000400500085805800b0628800c1628800e0
:103af000b3ff37000200fa00881f7800894be2000c
:103b00001d003a0062bc2000124178000204e0006f
:103b10001c003a00c1cbbf000080fb000002e9009e
:103b20008401e9008000eb0025d72000e18f4100ef
:103b3000070032008500780030d720000080410067
:103b400031416900810f5000fdff3a008280fb0087
:103b50000500420090cf100010003200404a2b00b8
:103b600061e8200016000900b05878007001b1002b
:103b700010c0b300e2ebb7004f0478000080fa00f9
:103b8000000006000240e900c6ebb7004f047800d1
:103b90000080fa0000000600faff370020c4b300de
:103ba000724de30094003200622bef0082d72000b8
:103bb0001241780002007800cdebb70094d72000c6
:103bc0001442780004007800ccebb700a5d72000a1
:103bd0009542780005007800cbebb70074cdbf00ac
:103be000c5ebb70075cdbf00c4ebb70061d72000af
:103bf000914078008180fb0077cdbf004800dd0058
:103c000081007000e1bf9f0064805700b0407800e1
:103c100090417800c3ff9f00014878004ff897005b
:103c20000043b000c3ebb70097cdbf00c7ebb700b0
:103c3000e24f50005b00360010c3b3007bebb700cf
:103c40000281fb000300200000e120000011b80009
:103c50000480fb0001002000c40320000400b80021
:103c600002014000838148000580fb000100200024
:103c70000203400083834800b6608800c760880064
:103c8000e64be200bcff320090628000a16280003f
:103c9000e00f5000e08f5800b7ff3200e66bef00f6
:103ca0008c60a900286cef0028ccbf0029ecb7007d
:103cb00090628000a1628000823e20000232b80043
:103cc00002b9b900850241000000520081805a000b
:103cd00037003300b2628000c362800002004000ff
:103ce00083804800b0628800c16288000001be0085
:103cf000f0bf250061522000800f5100818f5900d4
:103d00000800360000402a0091ad2f00b26280000a
:103d1000c36280000200400083804800b0628800d7
:103d2000c1628800b8bd2000184478000804e00093
:103d30000a003200b0628000c162800042062000aa
:103d400003002000acf1070042c6b300004151005f
:103d5000020078002becb700376cef00b0628000f7
:103d6000c1628000823e200003002000a2f1070013
:103d7000823e200000015100526288008c60a80041
:103d80000804e0007cff3200db6bef00d56bef0036
:103d9000d26bef004f0478000080fa0000000600ac
:103da00078ff370000c3b3007bebb700a4ff3700f8
:103db00060021000e0821800b0628000c1628000e2
:103dc000800f5200818f5a0019003600b2628000c5
:103dd000c36280000201520083815a0000c02500a6
:103de000615220000200500083805800b0628800b9
:103df000c1628800cbff370011c0b300010078001a
:103e000089ebb700b04b2b0062e820000e000900e0
:103e100030597800f000b10001007800e2ebb70003
:103e20004f0478000080fa000000060055ff3700bc
:103e3000b0628000c162800004005000858058009c
:103e4000b0628800c1628800b6ff3700889fbe005c
:103e50008a9fbe008c60a9008d20a800cb22a800fc
:103e6000306cef0030ccbf0036ecb7000045eb0003
:103e700019002000890578000060fe00a2002000e3
:103e800040ce20000100200061005000e08058007a
:103e9000e10f4000e08f4800fbff3a000201e9001b
:103ea000f7ff3a00c9c2bf004300de00e100600036
:103eb000c9c2bf000048a300010032000114a000e5
:103ec000e0c2bf000068a3003700320002007800a3
:103ed00079ebb7000180fb00e2bd200012417800c1
:103ee0000204e1001a003200deebb7007806200081
:103ef000e34f50000700320038032000e24f50002b
:103f00000400320098012000e14f5000010032000f
:103f1000080120008d40a9008d20a90058f107005c
:103f200008017800d17d2f0000b02c005af1070065
:103f30000ec2bf000018a300010032000e22a9002b
:103f4000f0f32f000e22b600366cef008d20a80093
:103f5000304ce2000a003200306cef00366cef00ab
:103f600061eb20009140780020c6b30080cf500064
:103f70004200320030c4b30080cf50003c00320019
:103f80008904e9000f0032008b05e900baff3a000e
:103f90000a04e00007003200e202a9000b457800a5
:103fa000ab002000b4ff370010c0b30079ebb700be
:103fb000c8ff3700e202a8001ac0b300ab0020001f
:103fc000adff3700b0778000c17780003072880085
:103fd0004172880060c0b3004aeeb7000900780063
:103fe0004beeb70030c4b3004ceeb70010c8b300be
:103ff0004deeb7008004fd004eeeb7004feeb70067
:1040000050eeb70051eeb7008004fd0080c0b30051
:1040100052eeb700794be2000200320080c8b300d4
:1040200052eeb700a1e420000940780032e52000fc
:1040300031406800810f5100fdff3a0053eeb70098
:10404000e0002000606288004c2ced008540a90053
:1040500046cebf000080fb008010880070e4200086
:10406000006288008d40a80049062000c6ff370086
:104070004f05be004f04be00000006000000fe0019
:10408000bfff3700881f7800a1e2a900a8a2ef00b7
:10409000f08f210030168800c822ef0000002400b5
:1040a0006016880000df2f0090168800c0ff2f00e8
:1040b000f0168800c162a80080002000805f8800a0
:1040c000b0168800cb02a900e202a80040a7a90010
:1040d000c9c2bf004300de00e1006000c9c2bf00ea
:1040e0000048a300010032000114a000e0c2bf009c
:1040f0000068a3005a003200796bef000180fb00da
:10410000deebb70078062000e34f500007003200d6
:1041100038032000e24f50000400320098012000d4
:10412000e14f500001003200080120008d40a9003d
:104130008d20a900d2f0070008017800d17d2f0062
:1041400000b02c00d4f007000ec2bf000018a3007e
:10415000010032000e22a900f0f32f000e22b6005b
:10416000366cef000021ef00f0e723001008880014
:104170000421a90095c0bf000044a1000046b3007f
:1041800095e0b7008460a90005e1a80042c0bf0027
:104190007f4060000046b30042e0b700522cef00c1
:1041a000542cef0090628000a1628000b062880011
:1041b000c1628800336cef0010c0b300cfebb700d2
:1041c00040062000605f880050c0b3002aecb700b2
:1041d000ce6bef00266cef0026ccbf0027ecb700bb
:1041e000246cef001f6cef001fccbf007aebb70010
:1041f0001eecb700422cef0080c1b300d7ebb70034
:10420000a0c0b300d1ebb700e16bef0022032000a8
:1042100040ce20000100200061005000e0805800e6
:10422000e10f4000e08f4800fbff3a000201e90087
:10423000f7ff3a000001fd00e2ebb7002fecb700fa
:104240000001fd002fccbf0030ecb7000200780069
:10425000dfebb700125b88004f0478000000060017
:1042600010c0b30079ebb700a4ff3700a0cab300b9
:10427000f6eeb70050c5b300f7eeb70080c8b30044
:10428000f8eeb70040c4b300f9eeb700e56bef00fd
:104290004c2cef001a2cef001c2cef00296cef00c7
:1042a000801f780029ccbf0028ecb7004f007800b1
:1042b000522cef00542cef00162cef00182cef00be
:1042c000442cef00786bef00422cef007a6bef008c
:1042d0007440500087ebb7007bebb700c76bef0073
:1042e000896bef00396cef00e06bef00803e20003f
:1042f000506288002accbf002becb700cfcbbf00a8
:104300000080fb00625f80000280b900a2002000f4
:10431000110009000280d80000004000705f880092
:10432000376cef00d26bef00d56bef00e46bef0062
:104330002c6cef002cccbf002decb7002dccbf00b7
:104340002eecb700366cef0036ccbf00d6ebb700d2
:104350008a6bef00886bef00846bef00e66bef0079
:1043600050c0b300c6ebb700866bef007c6bef006c
:104370007d6bef007e6bef00dc6bef00dd6bef0021
:10438000db6bef00da6bef00d96bef00f62bef0081
:10439000f82bef00fa2bef00fc2bef00fe2bef00c9
:1043a000002cef00022cef00042cef00062cef0095
:1043b000082cef000a2cef000c2cef000e2cef0065
:1043c000102cef00122cef00142cef00c16bef004b
:1043d000c26bef00bf6bef00c06bef00c36bef0071
:1043e000c46bef00c56bef00d06bef0080002000c6
:1043f000805f8800b01688007f6bef00826bef0053
:10440000836bef00386cef00e0ce2000005c88008a
:10441000622bef0041c22000914078000104e000cf
:104420002e003200d5c2bf00614060002f00320074
:1044300010c0b30025ecb7008c60a8008d20a80048
:10444000e202a800274ce200220032008f20a900df
:104450008720a900396cef00e1bc20009140780072
:10446000e6cf50002b00320010c0b30089ebb7003c
:104470002e6cef00e2cf500021003200e6cf50005a
:104480001f003200e8cf50001d0032008f20a9002d
:104490008f00a90004f00700f20c2000d17d2f004e
:1044a00000f02c0006f0070018c2bf000018a3009f
:1044b000010032001822a900f0f32f001822b600e4
:1044c0002c6cef002cccbf002decb7008f00a800a7
:1044d0000060fe000060fe0000000600d5c2bf00c4
:1044e0000008a30003003a0010c0b30025ecb70099
:1044f000d1ff37000100780025ecb700ceff370070
:104500008f20a9008f00a900e7ef070072062000a6
:10451000e2ff370010c0b30084ebb700d2ff3700d2
:10452000646280000400e000fdff3a008520a900dd
:104530008540a9008700a9008720a9008c60a900f8
:10454000a0b6200071eb20000d0009003158780062
:1045500066b720001643780006007800cfebb7005e
:1045600075b720009542780005007800ceebb700c3
:10457000e1b62000914078008180fb006fcbbf0046
:104580004800dd000101700001b720009140780073
:104590008180fb0071cbbf004800dd00810170000d
:1045a000b2628800c3628800c1b6200091407800e2
:1045b0008180fb006dcbbf004800dd000101700071
:1045c000625f88000640e900e74f500013003e009c
:1045d000401f2000800f51000e003200e2cf520039
:1045e00012003600e6cf520010003200e7cf520032
:1045f0000e003200e8cf52000c003200e3cf520030
:104600008c00320010c0b30026ecb700276cef001e
:1046100000000500e44f5300f0ff360010c0b30067
:10462000cfebb700040078000000060010c0b30014
:1046300027ecb700266cef00a1b62000914078006f
:104640008180fb006bcbbf004800dd008101700062
:10465000618061003900320010c0b30024ecb70063
:10466000ea0f510042003200f40f51004a003200bc
:1046700021032000810f510051003200400620002c
:10468000800f510057003200800c2000800f510035
:104690005e003200a00f2000800f51006900320040
:1046a000401f2000800f5100010032000000050073
:1046b000e44f5300fdff3e0020c0b3002aecb700da
:1046c00001007800d1ebb70010c0b300d4ebb70005
:1046d00000c1b300d7ebb70040c0b300d3ebb700c5
:1046e000d7cbbf000080fb0042bd20001241780004
:1046f0000281fb000280b900cf80de00905f88005d
:10470000a15f88000318a30016003200336cef008d
:10471000648061000b00320010c0b3001eecb700d3
:1047200040a7a800d1fe0700e16bef0010c0b30066
:10473000dfebb7000060fe001000050024ecb700be
:10474000c7ff37001eecb70040a7a900c7fe07004f
:10475000e16bef0010c0b300dfebb7000060fe00bc
:104760001000050010c0b30033ecb700e8ff3700bd
:1047700050c0b3002aecb70010c0b300d1ebb700b3
:1047800040c1b300d4ebb70000404000d7ebb70006
:10479000d36bef00d3ff370050c0b3002aecb70053
:1047a00020c0b300d1ebb700a0c0b300d4ebb7007a
:1047b0007e404000d7ebb700d36bef00c9ff370056
:1047c00050c0b3002aecb700d1ebb70040c0b30033
:1047d000d4ebb70080c2b300d7ebb700d36bef00c8
:1047e000c0ff370050c0b3002aecb700a0c0b30030
:1047f000d1ebb70020c0b300d4ebb70080c2b30048
:10480000d7ebb700d36bef00b6ff370050c0b30053
:104810002aecb70040c1b300d1ebb70010c0b30021
:10482000d4ebb70080c2b300d7ebb700d36bef0077
:10483000acff370010c0b30026ecb700276cef00c8
:104840007dff370041c0b300010078002aecb700bb
:1048500090c1b300d1ebb70010c0b300d4ebb700e8
:1048600000c1b300d7ebb7008000fd00d3ebb70069
:104870008000fd009bff37008a4be20017003a00e2
:10488000864be20015003a0091b820009140780074
:10489000e1cf50004000320001c0e900e14f50007c
:1048a00019003600e4cf50007f00320065c0500090
:1048b000e74f50000a003600a0c0b300c6ebb700b7
:1048c000896bef007f6bef00826bef00836bef0073
:1048d000386cef00e0ce2000005c8800000006008d
:1048e00085cbbf008040e8008000fd0085ebb7006d
:1048f0008000fd006df40700896bec0040c0b30040
:1049000086ebb7000000060000c4b3008bebb700d5
:104910008cebb700634040008debb70090c6b3004e
:104920008eebb70010c0b3008febb700d0b82000fb
:104930000041eb0003b9200030416900808f510035
:10494000fdff3a000200780090ebb700d0c0b30042
:1049500091ebb700a0c0b30092ebb70080c0b300ea
:1049600039ecb700396ced008720a9008bcbbf0074
:104970000080fb00d0108800c0b82000f0618800e3
:104980008f20a8000140e80089ebb70020c0b300e9
:1049900086ebb700000006008f20a9008f00a90059
:1049a000c1ee070072062000d17d2f0000f02c0020
:1049b000c3ee070018c2bf000018a3002d003a0084
:1049c000f0f32f001822b6002c6cef00801f780047
:1049d0002cccbf002decb7004f0078008f00a80052
:1049e000856bef00844be20002003a00896bec001b
:1049f00000000600846bef000040e8008bebb7007e
:104a00008cebb700634040008debb70060c6b3008d
:104a10008eebb700d0b820008040eb00f2b8200049
:104a2000b0c06800800f5100fdff3a00010078001f
:104a30008febb700d0c0b30090ebb700a0c0b300bd
:104a400091ebb70070c0b30039ecb700396ced00e2
:104a50008720a9008bcbbf000080fb00d01088000e
:104a6000c0b82000f06188008f20a800896bec009e
:104a7000000006001822a900f0f32f001822b6004b
:104a80002c6cef00801f78002cccbf002decb70001
:104a90004f0078008f00a800856bef00844be20088
:104aa000d2ff3200d3ff37008f20a9008f00a9006a
:104ab0007dee0700f20c2000d17d2f0000f02c00cd
:104ac0007fee070018c2bf000018a30001003200eb
:104ad0001822a900f0f32f001822b6002c6cef006a
:104ae0002cccbf002decb7008f00a800896bec0028
:104af00000000600881f78008a4be20018003a0088
:104b0000864be20016003a0098b82000184478005e
:104b1000e14f54005f00320008c0e900e14f50004f
:104b200098003600e44f54006f003200e54f540007
:104b300032003200e64f54000b003200a0c0b30038
:104b4000c6ebb700896bef007f6bef00826bef0065
:104b5000836bef00386cef00e0ce2000005c880033
:104b60004f0478000000060000c4b3008bebb700d0
:104b70008cebb70000c0e8008debb70020c6b30097
:104b80008eebb7008f6bef00d0b820008040eb00b9
:104b900002b92000b0c06800820f5000fdff3a004b
:104ba0000100780090ebb700d0c0b30091ebb700e4
:104bb000a0c0b30092ebb70080c0b30039ecb700df
:104bc000396ced008720a9008bcbbf000080fb0073
:104bd000d0108800c0b82000f06188008f20a800a5
:104be00070c0b30089ebb70020c0b30086ebb700fc
:104bf0004f04780000000600dbff370000c4b3005c
:104c00008bebb7008cebb700654040008debb70035
:104c10007c4040008eebb70010c0b3008febb700b4
:104c2000d0b820008040eb0002b92000b0c068007e
:104c3000800f5100fdff3a000100780090ebb700b3
:104c4000d0c0b30091ebb700a0c0b30092ebb700a7
:104c500080c0b30039ecb700396ced008720a900a3
:104c60008bcbbf000080fb00d0108800c0b82000b4
:104c7000f06188008f20a80060c0b30089ebb70006
:104c800020c0b30086ebb7004f0478000000060098
:104c9000b5ff37008f20a9008f00a90002ee0700a2
:104ca000f20c2000d17d2f0000f02c0004ee070054
:104cb00018c2bf000018a3001f003a00f0f32f0035
:104cc0001822b6002c6cef002cccbf002decb700e6
:104cd0008f00a800856bef00896bec004f04780013
:104ce00000000600a0ff37008f20a9008f00a90058
:104cf000eded070072062000d17d2f0000f02c00a2
:104d0000efed070018c2bf000018a30014003a001e
:104d1000f0f32f001822b6002c6cef002cccbf0053
:104d20002decb7008f00a800896bec004f047800d1
:104d3000000006008cff37001822a900f0f32f00b6
:104d40001822b6002c6cef002cccbf002decb70065
:104d50008f00a800856bef00896bec00dfff370048
:104d60001822a900f0f32f001822b6002c6cef00d7
:104d70002cccbf002decb7008f00a800896bec0095
:104d8000eaff3700b0b82000413b2b00b2b820004a
:104d90000e00090031597800f100b100f06188007f
:104da00060ed070039ecb700396ced008720a900f1
:104db0008bcbbf000080fb00d0108800c0b8200063
:104dc000f06188008f20a8000840e80089ebb70058
:104dd00020c0b30086ebb7004f0478000000060047
:104de00061ff3700e1bc20009140780067c05000af
:104df000e14f50000b0036000104e00008003200d3
:104e0000e6cf500006003200e1cf50002000320013
:104e1000e2cf500007003200896bef00000006006f
:104e2000f7f43700896bef0050c0b300c6ebb70052
:104e3000000006007d4be20043003a007c4be2009c
:104e4000960032008a4be200f4ff3a00864be20003
:104e5000f2ff3a0090b8200011c0b30090cf1000cc
:104e60004d003200a0c0b300c6ebb700896bef0065
:104e70007c6bef007f6bef00826bef00836bef00ca
:104e8000386cef00e0ce2000005c880000000600d7
:104e90007d4be200150032008a4be200dfff3a0052
:104ea000864be200ddff3a0091b820009140780087
:104eb0000140e900e24f50006e003e00e1cf50009b
:104ec0005600320085cbbf008040e8008000fd0026
:104ed00085ebb7008000fd00c3f30700896bec0091
:104ee00040c0b30086ebb700000006007c4be20038
:104ef000280032008a4be200c8ff3a00864be200ed
:104f0000c6ff3a0091b82000914078000140e900c6
:104f1000e64f5000d3ff3e00e1cf50004a00320080
:104f200085cbbf008040e8008000fd0085ebb70026
:104f30008000fd00ddf20700896bec0040c0b3008b
:104f400086ebb700000006008a4be200b3ff3a0090
:104f5000864be200b1ff3a0090b8200011c0b300c8
:104f600090cf10004e003200a0c0b300c6ebb700d7
:104f7000896bef007d6bef007f6bef00826bef00c2
:104f8000836bef00386cef00e0ce2000005c8800ff
:104f90000000060038fe370000c4b3008bebb700fa
:104fa0008cebb70000c0e8008debb70020c6b30063
:104fb0008eebb7008f6bef00d0b820008040eb0085
:104fc00002b92000b0c06800820f5000fdff3a0017
:104fd0000100780090ebb700d0c0b30091ebb700b0
:104fe000a0c0b30092ebb70080c0b30039ecb700ab
:104ff000396ced008720a9008bcbbf000080fb003f
:10500000d0108800c0b82000f06188008f20a80070
:1050100020c0b30089ebb70000000600856bef00ed
:1050200085cbbf008040e8008000fd0085ebb70025
:105030008000fd006cf30700896bec0040c0b300fa
:1050400086ebb70000000600856bef0085cbbf0044
:105050008040e8008000fd0085ebb7008000fd0087
:1050600092f20700896bec0040c0b30086ebb700fa
:1050700000000600a0c0b300c6ebb700896bef00cc
:105080007f6bef00826bef00836bef00386cef00fb
:10509000e0ce2000005c88000000060095fe37008e
:1050a00000c4b3008bebb7008cebb70000c0e80086
:1050b0008debb70020c6b3008eebb700010078007f
:1050c0008febb700d0b820008040eb0002b9200081
:1050d000b0c06800800f5100bdff3200b0c0680052
:1050e000800f5100faff3a00b9ff37008f20a90066
:1050f0008720a900396cef00e1bc200091407800c6
:10510000e6cf50002100320010c0b30089ebb70099
:105110002e6cef00e2cf500017003200e6cf5000b7
:1051200015003200e8cf5000130032008f20a90094
:105130008f00a900dcec0700f20c2000d17d2f00cd
:1051400000f02c00deec070018c2bf000018a3001e
:10515000010032001822a900f0f32f001822b60037
:105160002c6cef002cccbf002decb7008f00a800fa
:105170000060fe00000006008f20a9008f00a9003b
:10518000c9ec070072062000ecff370010c0b30026
:1051900084ebb700dcff3700889fbe00cecbbf009a
:1051a000e24f500030003200e64f50002e00320037
:1051b000e84f50002c0032008f20a9008f00a9007a
:1051c000b9ec0700f20c2000d17d2f0000f02c007c
:1051d000bbec070018c2bf000018a300b9003a00da
:1051e000f0f32f001822b6002c6cef00801f78001f
:1051f0002cccbf002decb7004f007800f80c20003d
:105200009fec070008017800d17d2f0000b02c0032
:10521000a1ec0700f0f32f000e22b6008044eb0053
:10522000abec07000004e0000a003200abec070022
:1052300000447800fb4f50002f0032008044eb0008
:10524000afec07000004e000fdff3a000880fb001f
:10525000afec0700b6ec07000004e0001d003a00c8
:105260000060fe00eeff37008f20a9008f00a9002c
:105270008dec070072062000d17d2f0000f02c007d
:105280008fec070018c2bf000018a3006f003a009f
:10529000f0f32f001822b6002c6cef00801f78006e
:1052a0002cccbf002decb7004f0078007806200012
:1052b00073ec070008017800d17d2f0000b02c00ae
:1052c00075ec0700f0f32f000e22b6008044eb00cf
:1052d000d3ff370099ec070000447800a0ec0700ea
:1052e0000004e000fdff3a000880fb00a0ec07008e
:1052f0000060fe00caff37008944e800e2cf540096
:10530000cfff3600dd6bef00c9c2bf004300de00f7
:10531000e1006000c9c2bf000048a30001003200e4
:105320000114a000e0c2bf000068a30044003200e6
:10533000796bef000180fb00deebb7007806200000
:10534000e34f50000700320038032000e24f5000c6
:105350000400320098012000e14f500001003200ab
:10536000080120008d40a9008d20a90044ec070011
:1053700008017800d17d2f0000b02c0046ec07001a
:105380000ec2bf000018a300010032000e22a900c7
:10539000f8f32f000004fd000e22b6000004fd000b
:1053a000366cef008d20a800274ce200220032006e
:1053b0008f20a9008720a900396cef00e1bc2000f4
:1053c00091407800e6cf50003b00320010c0b3009f
:1053d00089ebb7002e6cef00e2cf500023003200c3
:1053e000e6cf500021003200e8cf50001f0032000d
:1053f0008f20a9008f00a9002bec0700f20c2000e1
:10540000d17d2f0000f02c002dec070018c2bf004a
:105410000018a30033003a000004fd001822b60073
:105420000004fd002c6cef002cccbf002decb7006d
:105430008f00a8000060fe004f04be0000000600c0
:1054400010c0b30079ebb700baff37001822a900eb
:10545000f0f32f001822b6002c6cef002cccbf000c
:105460002decb7007806200091ff37008f20a900af
:105470008f00a9000cec070072062000d17d2f00e0
:1054800000f02c000eec070018c2bf000018a300ab
:10549000010032001822a900f0f32f001822b600f4
:1054a0002c6cef002cccbf002decb7008f00a800b7
:1054b0000060fe00e0ff370010c0b30084ebb700cf
:1054c000c2ff37001822a900f0f32f001822b600ff
:1054d0002c6cef002cccbf002decb700f80c20009a
:1054e00047ff37001822a9000004fd001822b6006b
:1054f0000004fd002c6cef002cccbf002decb7009d
:105500008f00a800cbff3700889fbe008a1f78005d
:1055100061eb20009140780040c5b30080cf50007f
:105520008300320040c4b30080cf5000c00032007e
:1055300020c5b30080cf50006a00320040c7b300de
:1055400080cf50006c00320090c6b30080cf500076
:10555000de00320010c6b30080cf50006d00320074
:1055600030c7b30080cf5000df00320030c5b30039
:1055700080cf5000ea00320080c7b30080cf5000d7
:10558000ed00320030c4b30080cf5000f70032008d
:1055900070c6b30080cf5000da00320070c4b30090
:1055a00080cf5000eb00320050c4b30080cf5000d9
:1055b0002001320020c6b30080cf5000f40032003a
:1055c00000c5b30080cf5000f600320000c7b30022
:1055d00080cf50001b01320040c6b30080cf500086
:1055e0003d003a0060eb200071eb20000400090050
:1055f0003158780060eb20009080fb00b7cebf00f0
:105600004800dd000101700081eb2000914078002e
:105610008180fb00b9cebf004800dd008101700031
:10562000aaeb20001a4578008c60a900b4628000c3
:10563000c5628000e00f5100e08f59002f01350056
:105640000404410085844900f0bf25006152200018
:10565000800f5400818f5c000400360000402a0057
:1056600091ad2f000804400089844800b86288008a
:10567000c96288000a04e0000900320042062000e6
:10568000030020000800be005beb070042c6b30029
:1056900000415100020078002becb700376cef009e
:1056a000823e2000030020000800be0052eb0700ed
:1056b000823e200000015100526288008c60a800e8
:1056c0000a04e00002003200d56bef00d26bef005d
:1056d00010c0b300d9ebb7004f0578004f04be00ef
:1056e00000000600442cef004f0578004f04be0078
:1056f00000000600fbff370010c0b300e6ebb70068
:10570000db6bef004f0578004f04be000000060081
:10571000f4ff370010c0b30029ecb700d9ebb70095
:105720004f0578004f04be0000000600edff370073
:1057300060eb200071eb2000040009003158780074
:1057400060eb20009080fb00b7cebf004800dd007a
:105750000102700081eb2000914078008180fb0005
:10576000b9cebf004800dd0081027000aaeb200026
:105770001a4578008c60a900b0628000c162800088
:1057800072628000836280000200500083805800b3
:105790000404400085844800f0bf250061522000c9
:1057a000800f5400818f5c000400340000402a0008
:1057b00091ad2f000804400089844800b862880039
:1057c000c96288000a04e000090032004206200095
:1057d000030020000800be00f8ea070042c6b3003c
:1057e00000415100020078002becb700376cef004d
:1057f000823e2000030020000800be00efea070000
:10580000823e200000015100526288008c60a80096
:105810000a04e000b0ff3200d56bef00d26bef005e
:105820004f0578004f04be0000000600adff3700b2
:1058300060eb200071eb2000040009003158780073
:105840008c60a900b0628000c16280008c60a800fa
:10585000746280008562800060eb20009080fb0015
:10586000b7cebf004800dd000101700081eb2000d1
:10587000914078008180fb00b9cebf004800dd0078
:10588000810170000202520083825a0004007800f5
:1058900064ebb7004820de0065ebb7000500780038
:1058a00066ebb7004828de0067ebb700686bef00d7
:1058b000696bef0010c0b300e4ebb7004f05780050
:1058c0004f04be000000060086ff370010c0b30082
:1058d000e6ebb700dbebb7004f0578004f04be00e6
:1058e000000006007fff370010c0b30028ecb700af
:1058f000d9ebb7004f0578004f04be00000006004a
:1059000078ff370010c0b30084ebb70089ebb70015
:105910004f0578004f04be000000060071ff3700fd
:1059200010c0b300e0ebb7004f0578004f04be0095
:10593000000006006bff370010c0b300e1ebb700ba
:10594000d9ebb7004f0578004f04be0000000600f9
:1059500064ff370010c0b30089ebb7004f05780033
:105960004f04be00000006005eff3700ecfa07009f
:105970000004e00058ff3a0010c0b300e1ebb700ac
:105980004f0578004f04be000000060055ff3700a9
:105990000000fe004f0578004f04be000000060026
:1059a00050ff37007e4be2004bff3a00e1bc200085
:1059b0009140780067c05000e14f50003e00360033
:1059c000e6cf50001100320010c0b30089ebb700e1
:1059d0007debb7007eebb70030c0b300daebb70069
:1059e0008a6bef007f6bef00826bef00836bef0041
:1059f000386cef00e0ce2000005c88004f05780096
:105a00004f04be000000060036ff370010c0b30090
:105a100084ebb70010c0b30089ebb7007debb70093
:105a20007eebb70030c0b300daebb7008a6bef0053
:105a3000ecff3700d8fd070010c0b300e1ebb70062
:105a4000cfff37007e4be20023ff32007d6bef007b
:105a50007e6bef00e1bc20009140780067c05000f1
:105a6000e14f5000dfff3600e6cf50001c0032004f
:105a7000e1cf50000a00360010c0b30089ebb70038
:105a80008a6bef007f6bef00826bef00836bef00a0
:105a9000386cef00e0ce2000005c8800d7ff3700b4
:105aa00010c0b3007cebb70010c0b30089ebb700a7
:105ab0008a6bef00f3ff370010c0b3007debb70037
:105ac0007eebb7007f6bef00826bef00836bef0024
:105ad000386cef00e0ce2000005c8800c7ff370084
:105ae00010c0b30084ebb7007cebb70010c0b3006c
:105af00089ebb7008a6bef00e2ff3700600011000e
:105b0000e0801900800f5200818f5a000700310099
:105b1000040150008581580000c02500615220001a
:105b20000204500083845800d0fe37000004520065
:105b300081845a00cdfe3700889fbe008a9fbe0038
:105b40008c9fbe008e1f78004ef90700eb8120006d
:105b5000eebc2000e14be200010032000000fe003c
:105b6000c2f90700b9f807006dfa07000004e00069
:105b7000f8ff3200e14be200f6ff3a00374ce2005a
:105b800001003200d66bec00374ce200feff320021
:105b9000376cef00d24be20020013a00d54be20017
:105ba0001e013a00e54be2008101320080802000b6
:105bb000505f88004b5f88008c60a900b062800055
:105bc000c1628000535f8000c04198004801de0040
:105bd000d2419800e14198004808de00f041980069
:105be00090628000a1628000535f8000804998002d
:105bf0004801de0092499800a14998004808de005b
:105c0000b04998008c60a800505f800051bc200013
:105c10009140780031509800505f800042bc2000d5
:105c20001241780042509800505f800031bc200043
:105c30009140780051509800505f800062c1200070
:105c4000124178004248980071c1200091407800cc
:105c50005148980082c120001241780062489800a3
:105c600091c120009140780071489800505f8000f9
:105c700072bc20001241780022509800505f8000d2
:105c8000b1b720009140780011509800505f80001b
:105c900062bd20001241780002509800505f8000e1
:105ca000a1c120009140780001487800b2c12000d5
:105cb0001241780012409800c1c120009140780044
:105cc00021409800d2c12000124178003240980053
